{
  "contractName": "MedicalFileAccess",
  "abi": [
    {
      "inputs": [
        {
          "internalType": "string",
          "name": "_uniqueId",
          "type": "string"
        },
        {
          "internalType": "string",
          "name": "_fileName",
          "type": "string"
        },
        {
          "internalType": "string",
          "name": "_action",
          "type": "string"
        },
        {
          "internalType": "string",
          "name": "_hospital",
          "type": "string"
        }
      ],
      "name": "addLogEntry",
      "outputs": [],
      "stateMutability": "nonpayable",
      "type": "function"
    },
    {
      "inputs": [
        {
          "internalType": "string",
          "name": "_uniqueId",
          "type": "string"
        }
      ],
      "name": "getAccessLogs",
      "outputs": [
        {
          "components": [
            {
              "internalType": "string",
              "name": "uniqueId",
              "type": "string"
            },
            {
              "internalType": "string",
              "name": "fileName",
              "type": "string"
            },
            {
              "internalType": "string",
              "name": "action",
              "type": "string"
            },
            {
              "internalType": "string",
              "name": "hospital",
              "type": "string"
            },
            {
              "internalType": "uint256",
              "name": "timestamp",
              "type": "uint256"
            }
          ],
          "internalType": "struct MedicalFileAccess.LogEntry[]",
          "name": "",
          "type": "tuple[]"
        }
      ],
      "stateMutability": "view",
      "type": "function"
    }
  ],
  "bytecode": "0x608060405234801561001057600080fd5b506107e7806100206000396000f3fe608060405234801561001057600080fd5b50600436106100365760003560e01c80634bc19d341461003b5780634caff84214610064575b600080fd5b61004e610049366004610541565b610079565b60405161005b919061066c565b60405180910390f35b61007761007236600461057c565b610348565b005b606060008260405161008b9190610650565b9081526020016040518091039020805480602002602001604051908101604052809291908181526020016000905b8282101561033d57838290600052602060002090600502016040518060a00160405290816000820180546100ec90610760565b80601f016020809104026020016040519081016040528092919081815260200182805461011890610760565b80156101655780601f1061013a57610100808354040283529160200191610165565b820191906000526020600020905b81548152906001019060200180831161014857829003601f168201915b5050505050815260200160018201805461017e90610760565b80601f01602080910402602001604051908101604052809291908181526020018280546101aa90610760565b80156101f75780601f106101cc576101008083540402835291602001916101f7565b820191906000526020600020905b8154815290600101906020018083116101da57829003601f168201915b5050505050815260200160028201805461021090610760565b80601f016020809104026020016040519081016040528092919081815260200182805461023c90610760565b80156102895780601f1061025e57610100808354040283529160200191610289565b820191906000526020600020905b81548152906001019060200180831161026c57829003601f168201915b505050505081526020016003820180546102a290610760565b80601f01602080910402602001604051908101604052809291908181526020018280546102ce90610760565b801561031b5780601f106102f05761010080835404028352916020019161031b565b820191906000526020600020905b8154815290600101906020018083116102fe57829003601f168201915b50505050508152602001600482015481525050815260200190600101906100b9565b505050509050919050565b60006040518060a001604052808681526020018581526020018481526020018381526020014281525090506000856040516103839190610650565b9081526040516020918190038201902080546001810182556000918252908290208351805185946005909402909201926103c292849290910190610427565b5060208281015180516103db9260018501920190610427565b50604082015180516103f7916002840191602090910190610427565b5060608201518051610413916003840191602090910190610427565b506080820151816004015550505050505050565b82805461043390610760565b90600052602060002090601f016020900481019282610455576000855561049b565b82601f1061046e57805160ff191683800117855561049b565b8280016001018555821561049b579182015b8281111561049b578251825591602001919060010190610480565b506104a79291506104ab565b5090565b5b808211156104a757600081556001016104ac565b600082601f8301126104d0578081fd5b813567ffffffffffffffff808211156104eb576104eb61079b565b604051601f8301601f19168101602001828111828210171561050f5761050f61079b565b604052828152848301602001861015610526578384fd5b82602086016020830137918201602001929092529392505050565b600060208284031215610552578081fd5b813567ffffffffffffffff811115610568578182fd5b610574848285016104c0565b949350505050565b60008060008060808587031215610591578283fd5b843567ffffffffffffffff808211156105a8578485fd5b6105b4888389016104c0565b955060208701359150808211156105c9578485fd5b6105d5888389016104c0565b945060408701359150808211156105ea578384fd5b6105f6888389016104c0565b9350606087013591508082111561060b578283fd5b50610618878288016104c0565b91505092959194509250565b6000815180845261063c816020860160208601610730565b601f01601f19169290920160200192915050565b60008251610662818460208701610730565b9190910192915050565b60208082528251828201819052600091906040908185019080840286018301878501865b8381101561072257603f19898403018552815160a081518186526106b682870182610624565b915050888201518582038a8701526106ce8282610624565b91505087820151858203898701526106e68282610624565b915050606080830151868303828801526107008382610624565b6080948501519790940196909652505094870194925090860190600101610690565b509098975050505050505050565b60005b8381101561074b578181015183820152602001610733565b8381111561075a576000848401525b50505050565b60028104600182168061077457607f821691505b6020821081141561079557634e487b7160e01b600052602260045260246000fd5b50919050565b634e487b7160e01b600052604160045260246000fdfea26469706673582212203e8516b8088442363dd0ea25792ecd1b6a70c14b575a1dd231bfef045ee5f04364736f6c63430008000033",
  "immutableReferences": {},
  "source": "// SPDX-License-Identifier: MIT\r\npragma solidity ^0.8.0;\r\n\r\ncontract MedicalFileAccess {\r\n    struct LogEntry {\r\n        string uniqueId;    // User unique ID\r\n        string fileName;    // File name\r\n        string action;      // Upload or Access\r\n        string hospital;    // Hospital name\r\n        uint256 timestamp;  // Timestamp of action\r\n    }\r\n\r\n    mapping(string => LogEntry[]) private accessLogs;\r\n\r\n    // Function to add log entry\r\n    function addLogEntry(\r\n        string memory _uniqueId,\r\n        string memory _fileName,\r\n        string memory _action,\r\n        string memory _hospital\r\n    ) public {\r\n        LogEntry memory newEntry = LogEntry({\r\n            uniqueId: _uniqueId,\r\n            fileName: _fileName,\r\n            action: _action,\r\n            hospital: _hospital,\r\n            timestamp: block.timestamp\r\n        });\r\n\r\n        accessLogs[_uniqueId].push(newEntry);\r\n    }\r\n\r\n    // Function to get access logs\r\n    function getAccessLogs(string memory _uniqueId) public view returns (LogEntry[] memory) {\r\n        return accessLogs[_uniqueId];\r\n    }\r\n}\r\n",
  "sourcePath": "D:\\downloads\\medical-portal\\blockchain\\contracts\\MedicalFileAccess.sol",
  "compiler": {
    "name": "solc",
    "version": "0.8.0+commit.c7dfd78e.Emscripten.clang"
  },
  "schemaVersion": "3.4.16",
  "updatedAt": "2024-12-17T18:49:20.394Z",
  "devdoc": {
    "kind": "dev",
    "methods": {},
    "version": 1
  },
  "userdoc": {
    "kind": "user",
    "methods": {},
    "version": 1
  }
}