{
  "contractName": "MedicalPortal",
  "abi": [
    {
      "anonymous": false,
      "inputs": [
        {
          "indexed": true,
          "internalType": "string",
          "name": "userId",
          "type": "string"
        },
        {
          "indexed": false,
          "internalType": "string",
          "name": "eventType",
          "type": "string"
        },
        {
          "indexed": false,
          "internalType": "string",
          "name": "description",
          "type": "string"
        },
        {
          "indexed": false,
          "internalType": "uint256",
          "name": "timestamp",
          "type": "uint256"
        }
      ],
      "name": "LogEvent",
      "type": "event"
    },
    {
      "inputs": [
        {
          "internalType": "string",
          "name": "userId",
          "type": "string"
        },
        {
          "internalType": "string",
          "name": "eventType",
          "type": "string"
        },
        {
          "internalType": "string",
          "name": "description",
          "type": "string"
        }
      ],
      "name": "logEvent",
      "outputs": [],
      "stateMutability": "nonpayable",
      "type": "function"
    },
    {
      "inputs": [
        {
          "internalType": "string",
          "name": "userId",
          "type": "string"
        }
      ],
      "name": "getLogs",
      "outputs": [
        {
          "components": [
            {
              "internalType": "string",
              "name": "eventType",
              "type": "string"
            },
            {
              "internalType": "string",
              "name": "description",
              "type": "string"
            },
            {
              "internalType": "uint256",
              "name": "timestamp",
              "type": "uint256"
            }
          ],
          "internalType": "struct MedicalPortal.Log[]",
          "name": "",
          "type": "tuple[]"
        }
      ],
      "stateMutability": "view",
      "type": "function",
      "constant": true
    }
  ],
  "bytecode": "0x608060405234801561001057600080fd5b5061092d806100206000396000f3fe608060405234801561001057600080fd5b50600436106100365760003560e01c80631c0b75e81461003b57806391ef06901461006b575b600080fd5b61005560048036038101906100509190610441565b610087565b60405161006291906106d1565b60405180910390f35b61008560048036038101906100809190610482565b610232565b005b606060008260405161009991906106ba565b9081526020016040518091039020805480602002602001604051908101604052809291908181526020016000905b8282101561022757838290600052602060002090600302016040518060600160405290816000820180546100fa90610856565b80601f016020809104026020016040519081016040528092919081815260200182805461012690610856565b80156101735780601f1061014857610100808354040283529160200191610173565b820191906000526020600020905b81548152906001019060200180831161015657829003601f168201915b5050505050815260200160018201805461018c90610856565b80601f01602080910402602001604051908101604052809291908181526020018280546101b890610856565b80156102055780601f106101da57610100808354040283529160200191610205565b820191906000526020600020905b8154815290600101906020018083116101e857829003601f168201915b50505050508152602001600282015481525050815260200190600101906100c7565b505050509050919050565b6000604051806060016040528084815260200183815260200142815250905060008460405161026191906106ba565b908152602001604051809103902081908060018154018082558091505060019003906000526020600020906003020160009091909190915060008201518160000190805190602001906102b5929190610336565b5060208201518160010190805190602001906102d2929190610336565b50604082015181600201555050836040516102ed91906106ba565b60405180910390207fdd3ec82c8b95de6f2a32eff218347211e5deb730f8ea5f82727aefc5fec23eb9848442604051610328939291906106f3565b60405180910390a250505050565b82805461034290610856565b90600052602060002090601f01602090048101928261036457600085556103ab565b82601f1061037d57805160ff19168380011785556103ab565b828001600101855582156103ab579182015b828111156103aa57825182559160200191906001019061038f565b5b5090506103b891906103bc565b5090565b5b808211156103d55760008160009055506001016103bd565b5090565b60006103ec6103e784610769565b610738565b90508281526020810184848401111561040457600080fd5b61040f848285610814565b509392505050565b600082601f83011261042857600080fd5b81356104388482602086016103d9565b91505092915050565b60006020828403121561045357600080fd5b600082013567ffffffffffffffff81111561046d57600080fd5b61047984828501610417565b91505092915050565b60008060006060848603121561049757600080fd5b600084013567ffffffffffffffff8111156104b157600080fd5b6104bd86828701610417565b935050602084013567ffffffffffffffff8111156104da57600080fd5b6104e686828701610417565b925050604084013567ffffffffffffffff81111561050357600080fd5b61050f86828701610417565b9150509250925092565b60006105258383610645565b905092915050565b6000610538826107a9565b61054281856107cc565b93508360208202850161055485610799565b8060005b8581101561059057848403895281516105718582610519565b945061057c836107bf565b925060208a01995050600181019050610558565b50829750879550505050505092915050565b60006105ad826107b4565b6105b781856107dd565b93506105c7818560208601610823565b6105d0816108e6565b840191505092915050565b60006105e6826107b4565b6105f081856107ee565b9350610600818560208601610823565b610609816108e6565b840191505092915050565b600061061f826107b4565b61062981856107ff565b9350610639818560208601610823565b80840191505092915050565b6000606083016000830151848203600086015261066282826105a2565b9150506020830151848203602086015261067c82826105a2565b9150506040830151610691604086018261069c565b508091505092915050565b6106a58161080a565b82525050565b6106b48161080a565b82525050565b60006106c68284610614565b915081905092915050565b600060208201905081810360008301526106eb818461052d565b905092915050565b6000606082019050818103600083015261070d81866105db565b9050818103602083015261072181856105db565b905061073060408301846106ab565b949350505050565b6000604051905081810181811067ffffffffffffffff8211171561075f5761075e6108b7565b5b8060405250919050565b600067ffffffffffffffff821115610784576107836108b7565b5b601f19601f8301169050602081019050919050565b6000819050602082019050919050565b600081519050919050565b600081519050919050565b6000602082019050919050565b600082825260208201905092915050565b600082825260208201905092915050565b600082825260208201905092915050565b600081905092915050565b6000819050919050565b82818337600083830152505050565b60005b83811015610841578082015181840152602081019050610826565b83811115610850576000848401525b50505050565b6000600282049050600182168061086e57607f821691505b6020821081141561088257610881610888565b5b50919050565b7f4e487b7100000000000000000000000000000000000000000000000000000000600052602260045260246000fd5b7f4e487b7100000000000000000000000000000000000000000000000000000000600052604160045260246000fd5b6000601f19601f830116905091905056fea26469706673582212202bc8b134accae8c3f6ca5d8b8bf841233e5d7a035d70c0989644c0b331b255a964736f6c63430008000033",
  "immutableReferences": {},
  "source": "// SPDX-License-Identifier: MIT\r\npragma solidity ^0.8.0;\r\n\r\ncontract MedicalPortal {\r\n    struct Log {\r\n        string eventType;\r\n        string description;\r\n        uint256 timestamp;\r\n    }\r\n\r\n    mapping(string => Log[]) private userLogs;\r\n\r\n    // Event to emit logs\r\n    event LogEvent(string indexed userId, string eventType, string description, uint256 timestamp);\r\n\r\n    // Function to log an event\r\n    function logEvent(string memory userId, string memory eventType, string memory description) public {\r\n        Log memory newLog = Log(eventType, description, block.timestamp);\r\n        userLogs[userId].push(newLog);\r\n\r\n        // Emit the event\r\n        emit LogEvent(userId, eventType, description, block.timestamp);\r\n    }\r\n\r\n    // Function to retrieve logs for a user\r\n    function getLogs(string memory userId) public view returns (Log[] memory) {\r\n        return userLogs[userId];\r\n    }\r\n}\r\n",
  "sourcePath": "D:\\downloads\\medical-portal\\blockchain\\contracts\\MedicalPortal.sol",
  "compiler": {
    "name": "solc",
    "version": "0.8.0+commit.c7dfd78e.Emscripten.clang"
  },
  "schemaVersion": "3.4.16",
  "updatedAt": "2024-12-23T04:25:47.949Z",
  "networkType": "ethereum",
  "devdoc": {
    "kind": "dev",
    "methods": {},
    "version": 1
  },
  "userdoc": {
    "kind": "user",
    "methods": {},
    "version": 1
  }
}